{
  "contractName": "Forloop",
  "abi": [
    {
      "constant": false,
      "inputs": [],
      "name": "add",
      "outputs": [],
      "payable": false,
      "stateMutability": "nonpayable",
      "type": "function"
    },
    {
      "constant": true,
      "inputs": [],
      "name": "getAdd",
      "outputs": [
        {
          "internalType": "uint256",
          "name": "",
          "type": "uint256"
        }
      ],
      "payable": false,
      "stateMutability": "view",
      "type": "function"
    },
    {
      "constant": true,
      "inputs": [
        {
          "internalType": "uint256",
          "name": "a",
          "type": "uint256"
        }
      ],
      "name": "getList",
      "outputs": [
        {
          "internalType": "uint256",
          "name": "",
          "type": "uint256"
        },
        {
          "internalType": "uint256",
          "name": "",
          "type": "uint256"
        }
      ],
      "payable": false,
      "stateMutability": "view",
      "type": "function"
    }
  ],
  "bytecode": "0x60806040526000805534801561001457600080fd5b506101b8806100246000396000f3fe608060405234801561001057600080fd5b50600436106100415760003560e01c80631ab5b383146100465780634f2be91f1461008f578063d14d42ba14610099575b600080fd5b6100726004803603602081101561005c57600080fd5b81019080803590602001909291905050506100b7565b604051808381526020018281526020019250505060405180910390f35b6100976100dc565b005b6100a161017a565b6040518082815260200191505060405180910390f35b60008082600184815481106100c857fe5b906000526020600020015491509150915091565b6000600190505b6010811015610177576000600282816100f857fe5b0614158015610112575060006003828161010e57fe5b0614155b8015610129575060006005828161012557fe5b0614155b1561016a5780600080828254019250508190555060018190806001815401808255809150509060018203906000526020600020016000909192909190915055505b80806001019150506100e3565b50565b6000805490509056fea265627a7a7231582035875fa056327f86c1bdbfee4cf31e34ce023c8d0a9ce102e9877ced820dafaf64736f6c63430005100032",
  "source": "pragma solidity >=0.4.22 <0.7.0;\r\n\r\ncontract Forloop {\r\n    uint  a=0;\r\n    uint[] numbers;\r\n    \r\n    function add() public {\r\n        for(uint i=1;i<16;i++) {\r\n            if(i%2!=0 && i%3!=0 && i%5!=0) {\r\n                a += i;\r\n                numbers.push(i);\r\n            }\r\n        }\r\n    }\r\n    \r\n    function getAdd() public view returns(uint256) {\r\n        return a;\r\n    }\r\n    \r\n    function getList(uint256 a) public view returns(uint256, uint256) {\r\n        return (a, numbers[a]);\r\n    }\r\n}\r\n",
  "sourcePath": "C:/sourceTree/odong_BlockChain/ganache/likelion3/contracts/Forloop.sol",
  "compiler": {
    "name": "solc",
    "version": "0.5.16+commit.9c3226ce.Emscripten.clang"
  },
  "schemaVersion": "3.3.2",
  "updatedAt": "2020-11-27T06:28:02.940Z",
  "networkType": "ethereum",
  "devdoc": {
    "methods": {}
  },
  "userdoc": {
    "methods": {}
  }
}