{
  "contractName": "Month",
  "abi": [
    {
      "constant": false,
      "inputs": [
        {
          "internalType": "uint256",
          "name": "_month",
          "type": "uint256"
        }
      ],
      "name": "setSeason",
      "outputs": [],
      "payable": false,
      "stateMutability": "nonpayable",
      "type": "function"
    },
    {
      "constant": true,
      "inputs": [],
      "name": "getSeason",
      "outputs": [
        {
          "internalType": "string",
          "name": "",
          "type": "string"
        }
      ],
      "payable": false,
      "stateMutability": "view",
      "type": "function"
    }
  ],
  "bytecode": "0x608060405234801561001057600080fd5b5061045b806100206000396000f3fe608060405234801561001057600080fd5b50600436106100365760003560e01c806354c9d2731461003b578063af88fac9146100be575b600080fd5b6100436100ec565b6040518080602001828103825283818151815260200191508051906020019080838360005b83811015610083578082015181840152602081019050610068565b50505050905090810190601f1680156100b05780820380516001836020036101000a031916815260200191505b509250505060405180910390f35b6100ea600480360360208110156100d457600080fd5b810190808035906020019092919050505061018e565b005b606060008054600181600116156101000203166002900480601f0160208091040260200160405190810160405280929190818152602001828054600181600116156101000203166002900480156101845780601f1061015957610100808354040283529160200191610184565b820191906000526020600020905b81548152906001019060200180831161016757829003601f168201915b5050505050905090565b600381111580156101a0575060018110155b156101f6576040518060400160405280600981526020017f3120717561727465720000000000000000000000000000000000000000000000815250600090805190602001906101f0929190610381565b5061037e565b60048110158015610208575060068111155b1561025e576040518060400160405280600981526020017f322071756172746572000000000000000000000000000000000000000000000081525060009080519060200190610258929190610381565b5061037d565b60078110158015610270575060098111155b156102c6576040518060400160405280600981526020017f3320717561727465720000000000000000000000000000000000000000000000815250600090805190602001906102c0929190610381565b5061037c565b600a81101580156102d85750600c8111155b1561032e576040518060400160405280600981526020017f342071756172746572000000000000000000000000000000000000000000000081525060009080519060200190610328929190610381565b5061037b565b6040518060400160405280602081526020017f6572726f72206d657373616765203a206f7574206f66207468652072616e676581525060009080519060200190610379929190610381565b505b5b5b5b50565b828054600181600116156101000203166002900490600052602060002090601f016020900481019282601f106103c257805160ff19168380011785556103f0565b828001600101855582156103f0579182015b828111156103ef5782518255916020019190600101906103d4565b5b5090506103fd9190610401565b5090565b61042391905b8082111561041f576000816000905550600101610407565b5090565b9056fea265627a7a72315820376a5bddd8fdf7a6f913c84ef574563b26c084dc673c14f11365b38620a46d7a64736f6c63430005100032",
  "source": "pragma solidity >=0.4.22 <0.7.0;\r\n\r\ncontract Month {\r\n    string season;\r\n    uint month;\r\n    \r\n    function setSeason(uint _month) public {\r\n        if(_month <=3 && _month >=1) {\r\n            season = \"1 quarter\";\r\n        } else if  (_month >= 4 && _month <=6) {\r\n            season = \"2 quarter\";\r\n        } else if  (_month >= 7 && _month <=9) {\r\n            season = \"3 quarter\";\r\n        } else if  (_month >= 10 && _month <=12) {\r\n            season = \"4 quarter\";\r\n        } else {\r\n            season = \"error message : out of the range\";\r\n        }\r\n    }\r\n    \r\n    function getSeason() public view returns (string memory) {\r\n        return season;\r\n    }\r\n}\r\n",
  "sourcePath": "C:/sourceTree/odong_BlockChain/ganache/likelion3/contracts/Month.sol",
  "compiler": {
    "name": "solc",
    "version": "0.5.16+commit.9c3226ce.Emscripten.clang"
  },
  "schemaVersion": "3.3.2",
  "updatedAt": "2020-11-27T06:28:05.081Z",
  "networkType": "ethereum",
  "devdoc": {
    "methods": {}
  },
  "userdoc": {
    "methods": {}
  }
}