{
  "contractName": "StringStore",
  "abi": [
    {
      "constant": false,
      "inputs": [],
      "name": "push1",
      "outputs": [],
      "payable": false,
      "stateMutability": "nonpayable",
      "type": "function"
    },
    {
      "constant": false,
      "inputs": [],
      "name": "push2",
      "outputs": [],
      "payable": false,
      "stateMutability": "nonpayable",
      "type": "function"
    },
    {
      "constant": false,
      "inputs": [],
      "name": "push3",
      "outputs": [],
      "payable": false,
      "stateMutability": "nonpayable",
      "type": "function"
    },
    {
      "constant": false,
      "inputs": [],
      "name": "pop",
      "outputs": [],
      "payable": false,
      "stateMutability": "nonpayable",
      "type": "function"
    },
    {
      "constant": false,
      "inputs": [
        {
          "internalType": "string",
          "name": "aaa",
          "type": "string"
        }
      ],
      "name": "pushcon1",
      "outputs": [],
      "payable": false,
      "stateMutability": "nonpayable",
      "type": "function"
    },
    {
      "constant": false,
      "inputs": [
        {
          "internalType": "string",
          "name": "a2",
          "type": "string"
        }
      ],
      "name": "pushcon2",
      "outputs": [],
      "payable": false,
      "stateMutability": "nonpayable",
      "type": "function"
    },
    {
      "constant": true,
      "inputs": [
        {
          "internalType": "uint256",
          "name": "a",
          "type": "uint256"
        }
      ],
      "name": "get",
      "outputs": [
        {
          "internalType": "string",
          "name": "",
          "type": "string"
        }
      ],
      "payable": false,
      "stateMutability": "view",
      "type": "function"
    }
  ],
  "bytecode": "0x608060405234801561001057600080fd5b5061073e806100206000396000f3fe608060405234801561001057600080fd5b506004361061007d5760003560e01c806363ad561c1161005b57806363ad561c146102025780639507d39a1461020c578063a4ece52c146102b3578063fef731cd146102bd5761007d565b8063323b3bd11461008257806334a077811461013d5780635a65e60c146101f8575b600080fd5b61013b6004803603602081101561009857600080fd5b81019080803590602001906401000000008111156100b557600080fd5b8201836020820111156100c757600080fd5b803590602001918460018302840111640100000000831117156100e957600080fd5b91908080601f016020809104026020016040519081016040528093929190818152602001838380828437600081840152601f19601f8201169050808301925050505050505091929192905050506102c7565b005b6101f66004803603602081101561015357600080fd5b810190808035906020019064010000000081111561017057600080fd5b82018360208201111561018257600080fd5b803590602001918460018302840111640100000000831117156101a457600080fd5b91908080601f016020809104026020016040519081016040528093929190818152602001838380828437600081840152601f19601f820116905080830192505050505050509192919290505050610355565b005b6102006103e2565b005b61020a610454565b005b6102386004803603602081101561022257600080fd5b81019080803590602001909291905050506104c6565b6040518080602001828103825283818151815260200191508051906020019080838360005b8381101561027857808201518184015260208101905061025d565b50505050905090810190601f1680156102a55780820380516001836020036101000a031916815260200191505b509250505060405180910390f35b6102bb61057f565b005b6102c56105aa565b005b6040518060400160405280600181526020017f6100000000000000000000000000000000000000000000000000000000000000815250805190602001208180519060200120141561035257600081908060018154018082558091505090600182039060005260206000200160009091929091909150908051906020019061034f92919061061c565b50505b50565b6040518060400160405280600581526020017f6a616d6573000000000000000000000000000000000000000000000000000000815250805190602001208180519060200120146103df5760008190806001815401808255809150509060018203906000526020600020016000909192909190915090805190602001906103dc92919061061c565b50505b50565b60008060018154018082558091505090600182039060005260206000200160006040518060400160405280600181526020017f63000000000000000000000000000000000000000000000000000000000000008152509091909150908051906020019061045092919061061c565b5050565b60008060018154018082558091505090600182039060005260206000200160006040518060400160405280600181526020017f6200000000000000000000000000000000000000000000000000000000000000815250909190915090805190602001906104c292919061061c565b5050565b6060600082815481106104d557fe5b906000526020600020018054600181600116156101000203166002900480601f0160208091040260200160405190810160405280929190818152602001828054600181600116156101000203166002900480156105735780601f1061054857610100808354040283529160200191610573565b820191906000526020600020905b81548152906001019060200180831161055657829003601f168201915b50505050509050919050565b600080548061058a57fe5b6001900381819060005260206000200160006105a6919061069c565b9055565b60008060018154018082558091505090600182039060005260206000200160006040518060400160405280600181526020017f61000000000000000000000000000000000000000000000000000000000000008152509091909150908051906020019061061892919061061c565b5050565b828054600181600116156101000203166002900490600052602060002090601f016020900481019282601f1061065d57805160ff191683800117855561068b565b8280016001018555821561068b579182015b8281111561068a57825182559160200191906001019061066f565b5b50905061069891906106e4565b5090565b50805460018160011615610100020316600290046000825580601f106106c257506106e1565b601f0160209004906000526020600020908101906106e091906106e4565b5b50565b61070691905b808211156107025760008160009055506001016106ea565b5090565b9056fea265627a7a7231582099ff3ed9d267753f8900fa6b0bcba9071669ca00da212104bb243cac78443aea64736f6c63430005100032",
  "source": "pragma solidity >=0.4.22 <0.7.0;\r\n\r\ncontract StringStore {\r\n    string[] sarray;\r\n    \r\n    function push1() public {\r\n        sarray.push(\"a\");\r\n    }\r\n    \r\n    function push2() public {\r\n        sarray.push(\"b\");\r\n    }\r\n    \r\n    function push3() public  {\r\n        sarray.push(\"c\");\r\n    }\r\n    \r\n    function pop() public {\r\n        sarray.pop();\r\n    }\r\n    \r\n    function pushcon1(string memory aaa) public {\r\n        if(keccak256(bytes(aaa)) == keccak256(bytes(\"a\"))) {\r\n            sarray.push(aaa);\r\n        }\r\n    }\r\n    \r\n    function pushcon2(string memory a2) public {\r\n        if(keccak256(bytes(a2))!=keccak256(bytes(\"james\"))) {\r\n            sarray.push(a2);\r\n        }\r\n    }\r\n    \r\n    function get(uint256 a) public view returns(string memory) {\r\n        return  sarray[a];\r\n    }\r\n}\r\n",
  "sourcePath": "C:/sourceTree/odong_BlockChain/ganache/likelion3/contracts/StringStore.sol",
  "compiler": {
    "name": "solc",
    "version": "0.5.16+commit.9c3226ce.Emscripten.clang"
  },
  "schemaVersion": "3.3.2",
  "updatedAt": "2020-11-27T06:28:04.146Z",
  "networkType": "ethereum",
  "devdoc": {
    "methods": {}
  },
  "userdoc": {
    "methods": {}
  }
}