{
  "contractName": "example",
  "abi": [
    {
      "constant": true,
      "inputs": [
        {
          "internalType": "uint256",
          "name": "a",
          "type": "uint256"
        },
        {
          "internalType": "uint256",
          "name": "b",
          "type": "uint256"
        }
      ],
      "name": "add",
      "outputs": [
        {
          "internalType": "uint256",
          "name": "",
          "type": "uint256"
        }
      ],
      "payable": false,
      "stateMutability": "view",
      "type": "function"
    },
    {
      "constant": true,
      "inputs": [
        {
          "internalType": "uint256",
          "name": "a",
          "type": "uint256"
        },
        {
          "internalType": "uint256",
          "name": "b",
          "type": "uint256"
        }
      ],
      "name": "sub",
      "outputs": [
        {
          "internalType": "uint256",
          "name": "",
          "type": "uint256"
        }
      ],
      "payable": false,
      "stateMutability": "view",
      "type": "function"
    },
    {
      "constant": true,
      "inputs": [
        {
          "internalType": "uint256",
          "name": "a",
          "type": "uint256"
        },
        {
          "internalType": "uint256",
          "name": "b",
          "type": "uint256"
        }
      ],
      "name": "mul",
      "outputs": [
        {
          "internalType": "uint256",
          "name": "",
          "type": "uint256"
        }
      ],
      "payable": false,
      "stateMutability": "view",
      "type": "function"
    },
    {
      "constant": true,
      "inputs": [
        {
          "internalType": "uint256",
          "name": "a",
          "type": "uint256"
        },
        {
          "internalType": "uint256",
          "name": "b",
          "type": "uint256"
        }
      ],
      "name": "div",
      "outputs": [
        {
          "internalType": "uint256",
          "name": "",
          "type": "uint256"
        }
      ],
      "payable": false,
      "stateMutability": "view",
      "type": "function"
    },
    {
      "constant": true,
      "inputs": [
        {
          "internalType": "uint256",
          "name": "a",
          "type": "uint256"
        },
        {
          "internalType": "uint256",
          "name": "b",
          "type": "uint256"
        }
      ],
      "name": "div2",
      "outputs": [
        {
          "internalType": "uint256",
          "name": "",
          "type": "uint256"
        },
        {
          "internalType": "uint256",
          "name": "",
          "type": "uint256"
        }
      ],
      "payable": false,
      "stateMutability": "view",
      "type": "function"
    },
    {
      "constant": true,
      "inputs": [
        {
          "internalType": "uint256",
          "name": "a",
          "type": "uint256"
        },
        {
          "internalType": "uint256",
          "name": "b",
          "type": "uint256"
        }
      ],
      "name": "power",
      "outputs": [
        {
          "internalType": "uint256",
          "name": "",
          "type": "uint256"
        }
      ],
      "payable": false,
      "stateMutability": "view",
      "type": "function"
    }
  ],
  "bytecode": "0x608060405234801561001057600080fd5b506102d5806100206000396000f3fe608060405234801561001057600080fd5b50600436106100625760003560e01c80630cfbf7b514610067578063771602f7146100ba578063a391c15b14610106578063b67d77c514610152578063c04f01fc1461019e578063c8a4ac9c146101ea575b600080fd5b61009d6004803603604081101561007d57600080fd5b810190808035906020019092919080359060200190929190505050610236565b604051808381526020018281526020019250505060405180910390f35b6100f0600480360360408110156100d057600080fd5b810190808035906020019092919080359060200190929190505050610258565b6040518082815260200191505060405180910390f35b61013c6004803603604081101561011c57600080fd5b810190808035906020019092919080359060200190929190505050610265565b6040518082815260200191505060405180910390f35b6101886004803603604081101561016857600080fd5b810190808035906020019092919080359060200190929190505050610279565b6040518082815260200191505060405180910390f35b6101d4600480360360408110156101b457600080fd5b810190808035906020019092919080359060200190929190505050610286565b6040518082815260200191505060405180910390f35b6102206004803603604081101561020057600080fd5b810190808035906020019092919080359060200190929190505050610293565b6040518082815260200191505060405180910390f35b60008082848161024257fe5b0483858161024c57fe5b06915091509250929050565b6000818301905092915050565b600081838161027057fe5b04905092915050565b6000818303905092915050565b600081830a905092915050565b600081830290509291505056fea265627a7a723158200fd80c5f3d64c3a0548affc8872fc8e621e2e01445b8adf17b2d80e88453068b64736f6c63430005100032",
  "source": "/*\r\nconst Migrations = artifacts.require(\"Migrations\");\r\n\r\nmodule.exports = function (deployer) {\r\n  deployer.deploy(Migrations);\r\n};\r\n*/\r\npragma solidity >=0.4.22 < 0.7.0;\r\n\r\ncontract example {\r\n    \r\n    function add(uint a, uint b) public view returns (uint256) {\r\n        return a+b;\r\n    }\r\n    \r\n    function sub(uint a, uint b) public view returns (uint256) {\r\n        return a-b;\r\n    }\r\n    \r\n    function mul(uint a, uint b) public view returns (uint256) {\r\n        return a*b;\r\n    }\r\n    \r\n    function div(uint a, uint b) public view returns (uint256) {\r\n        return a / b;\r\n    }\r\n    \r\n    function div2(uint a, uint b) public view returns (uint256, uint256) {\r\n        return (a/b, a%b);\r\n    }\r\n    \r\n    function power(uint a, uint b) public view returns (uint256) {\r\n        return a**b;\r\n    }\r\n}\r\n",
  "sourcePath": "C:/Users/GimBoSeong/Documents/odong_BlockChain/ganache/likelion2/contracts/example.sol",
  "compiler": {
    "name": "solc",
    "version": "0.5.16+commit.9c3226ce.Emscripten.clang"
  },
  "schemaVersion": "3.3.2",
  "updatedAt": "2020-11-18T08:43:05.944Z",
  "networkType": "ethereum",
  "devdoc": {
    "methods": {}
  },
  "userdoc": {
    "methods": {}
  }
}