{
  "contractName": "Example2",
  "abi": [
    {
      "constant": false,
      "inputs": [],
      "name": "push1",
      "outputs": [],
      "payable": false,
      "stateMutability": "nonpayable",
      "type": "function"
    },
    {
      "constant": false,
      "inputs": [],
      "name": "push2",
      "outputs": [],
      "payable": false,
      "stateMutability": "nonpayable",
      "type": "function"
    },
    {
      "constant": false,
      "inputs": [],
      "name": "push3",
      "outputs": [],
      "payable": false,
      "stateMutability": "nonpayable",
      "type": "function"
    },
    {
      "constant": false,
      "inputs": [],
      "name": "pop",
      "outputs": [],
      "payable": false,
      "stateMutability": "nonpayable",
      "type": "function"
    },
    {
      "constant": false,
      "inputs": [
        {
          "internalType": "uint256",
          "name": "a",
          "type": "uint256"
        }
      ],
      "name": "pusheven",
      "outputs": [],
      "payable": false,
      "stateMutability": "nonpayable",
      "type": "function"
    },
    {
      "constant": false,
      "inputs": [
        {
          "internalType": "uint256",
          "name": "a",
          "type": "uint256"
        }
      ],
      "name": "pushcon1",
      "outputs": [],
      "payable": false,
      "stateMutability": "nonpayable",
      "type": "function"
    },
    {
      "constant": false,
      "inputs": [
        {
          "internalType": "uint256",
          "name": "a",
          "type": "uint256"
        }
      ],
      "name": "pushcon2",
      "outputs": [],
      "payable": false,
      "stateMutability": "nonpayable",
      "type": "function"
    },
    {
      "constant": true,
      "inputs": [
        {
          "internalType": "uint256",
          "name": "a",
          "type": "uint256"
        }
      ],
      "name": "get",
      "outputs": [
        {
          "internalType": "uint256",
          "name": "",
          "type": "uint256"
        }
      ],
      "payable": false,
      "stateMutability": "view",
      "type": "function"
    }
  ],
  "bytecode": "0x608060405234801561001057600080fd5b5061035f806100206000396000f3fe608060405234801561001057600080fd5b50600436106100885760003560e01c8063a4ece52c1161005b578063a4ece52c14610111578063c386dc301461011b578063c3fd62d614610149578063fef731cd1461017757610088565b806327d4cae31461008d5780635a65e60c146100bb57806363ad561c146100c55780639507d39a146100cf575b600080fd5b6100b9600480360360208110156100a357600080fd5b8101908080359060200190929190505050610181565b005b6100c36101c4565b005b6100cd6101f3565b005b6100fb600480360360208110156100e557600080fd5b8101908080359060200190929190505050610222565b6040518082815260200191505060405180910390f35b610119610242565b005b6101476004803603602081101561013157600080fd5b8101908080359060200190929190505050610265565b005b6101756004803603602081101561015f57600080fd5b81019080803590602001909291905050506102b4565b005b61017f6102fb565b005b60006002828161018d57fe5b0614156101c15760008190806001815401808255809150509060018203906000526020600020016000909192909190915055505b50565b600060039080600181540180825580915050906001820390600052602060002001600090919290919091505550565b600060029080600181540180825580915050906001820390600052602060002001600090919290919091505550565b600080828154811061023057fe5b90600052602060002001549050919050565b600080548061024d57fe5b60019003818190600052602060002001600090559055565b60648110158061027f575060006003828161027c57fe5b06145b156102b15760008190806001815401808255809150509060018203906000526020600020016000909192909190915055505b50565b80600a111580156102c6575080600f10155b156102f85760008190806001815401808255809150509060018203906000526020600020016000909192909190915055505b50565b60006001908060018154018082558091505090600182039060005260206000200160009091929091909150555056fea265627a7a723158200ed50fe68ebf6c80b1009ae0dabf3c76f8ff73ada8a9799f21843c13d0370b2a64736f6c63430005100032",
  "source": "pragma solidity >=0.4.22 <0.7.0;\r\n\r\ncontract Example2 {\r\n    uint[] array;\r\n    \r\n    function push1() public {\r\n        array.push(1);\r\n    }\r\n    \r\n    function push2() public {\r\n        array.push(2);\r\n    }\r\n    \r\n    function push3() public {\r\n        array.push(3);\r\n    }\r\n    \r\n    function pop() public {\r\n        array.pop();\r\n    }\r\n    \r\n    function pusheven(uint256  a) public {\r\n        if(a%2 ==0)  {\r\n            array.push(a);\r\n        }\r\n    }\r\n    \r\n    function pushcon1(uint256  a) public {\r\n        if(10<=a && 15>=a) {\r\n            array.push(a);\r\n        }\r\n    }\r\n    \r\n    function pushcon2(uint256 a) public {\r\n        if(a>=100 || a%3==0) {\r\n            array.push(a);\r\n        }\r\n    } \r\n    \r\n    function get(uint256 a) public view returns(uint256) {\r\n        return array[a];\r\n    } \r\n}\r\n",
  "sourcePath": "C:/Users/GimBoSeong/Documents/odong_BlockChain/ganache/likelion2/contracts/example2.sol",
  "compiler": {
    "name": "solc",
    "version": "0.5.16+commit.9c3226ce.Emscripten.clang"
  },
  "schemaVersion": "3.3.2",
  "updatedAt": "2020-11-18T08:43:07.160Z",
  "networkType": "ethereum",
  "devdoc": {
    "methods": {}
  },
  "userdoc": {
    "methods": {}
  }
}